:100000000C9460000C9488000C9488000C94880078
:100010000C9488000C9488000C9488000C94880040
:100020000C9488000C9488000C9488000C940C07A5
:100030000C9488000C9488000C9488000C94880020
:100040000C94E3110C9488000C94EC130C942F1472
:100050000C9488000C9488000C9488000C94880000
:100060000C94D40A0C9488000000000700020100E0
:100070000003040600000000000000000102040864
:100080001020408001020408102001020408102002
:10009000040404040404040402020202020203032E
:1000A0000303030300000000250028002B000000CC
:1000B0000000240027002A00FD06F109820FEB143E
:1000C00011241FBECFEFD8E0DEBFCDBF11E0A0E00E
:1000D000B1E0ECEDFBE202C005900D92A03EB1074D
:1000E000D9F714E0A0EEB1E001C01D92A636B10729
:1000F000E1F710E0C0ECD0E004C02297FE010E94BE
:10010000A815C83BD107C9F70E941B130C94EC1526
:100110000C940000833028F4E82FF0E0E757FD4FFF
:1001200060830895833008F062C0482F440F440F65
:10013000440F485F453108F044E1582F550F550FE3
:10014000550F90E071E01CC0252F22502231B0F4F1
:10015000E52FF0E0DF01AE58BD4F2C91223070F456
:10016000972BEE0FFF1FE95BFD4FA72FA62321E082
:1001700030E011F420E030E031832083770F5F5FBF
:10018000541710F381110AC09C7FF8942BB1892F6A
:10019000809582239623892B8BB928C08130C9F49E
:1001A0006923F89425B1892F8F7380958223262F98
:1001B0002F73822B85B988B16295669566956370B9
:1001C000929596959695937090959823692B68B91A
:1001D0000DC09F70F89428B1892F880F880F8095E3
:1001E00082236923660F660F862B88B97894089559
:1001F0008630C0F440918C0250918D0221E030E0B5
:1002000002C0220F331F8A95E2F7672B29F420954D
:1002100030952423352302C0242B352B30938D02B7
:1002200020938C0208950F931F93CF93DF93EB01DC
:10023000843180F5082F10E0F801EE58FD4F9081D1
:10024000933091F0943031F582508C30E0F4980185
:1002500022503109C901880F991F820F931F8052C4
:100260009E4F0E94AE080FC0833051F0853041F0A0
:10027000863031F0893021F08A3011F08B3019F45A
:10028000BE010E94AF0FF801EE0FFF1FE95BFD4FAB
:10029000D183C083DF91CF911F910F910895DC012D
:1002A000ED91FC910190F081E02D0994DF92EF92A5
:1002B000FF920F931F93CF93DF93F82EEB01D42E71
:1002C0006F3F8FEF7807A9F06F2D84EB92E00E94CB
:1002D000D1096C2F84EB92E00E94770984EB92E0C5
:1002E0000E94EE0980910402909105020E948F12F3
:1002F00002C0C0E0D0E04D2D6F2D84EB92E00E9453
:10030000CE090D2D10E084EB92E00E941B09081726
:100310001907B9F4F0920702C093080259E0E52EDC
:1003200052E0F52EC0E0D0E008C084EB92E00E94DD
:100330002409F70181937F012196C017D107ACF3FF
:1003400010C084EB92E00E941B09801791071CF4F7
:100350006AE071E002C062E371E084E793E00E942A
:10036000F40D4D2D4E5F27E032E067E784E793E020
:10037000DF91CF911F910F91FF90EF90DF900C9440
:10038000AF0D1F93CF93DF93162FC82FD0E0FE0140
:10039000E159FD4F90811923411106C0FE01EA5732
:1003A000FD4F9081911751F0412F50E0682F84E765
:1003B00093E00E947D0DCA57DD4F1883DF91CF91E6
:1003C0001F91089580918902882349F069B1809135
:1003D0006F0268236C7F40E080E00E94C101809141
:1003E0008A02882379F063B186B120E4829FC0013C
:1003F00011246F73682B80917002682340E081E0C4
:100400000E94C10180918B02882359F066B16C7300
:100410006695669580917102682340E082E00C94B5
:10042000C1010895109206028FEF80930001089594
:10043000AF92BF92DF92EF92FF920F931F93CF93F1
:10044000DF9300D0CDB7DEB7D82E8B01A82EB12C0C
:10045000F501EE58FD4F8081863049F48091060207
:10046000882329F06630710511F00E9412024D2D8B
:1004700042504C30B0F40430110599F095012250EF
:1004800031097901EE0CFF1CE20EF31E80EE91E0C3
:10049000E80EF91EC7014A830E940C094A818111A6
:1004A000DEC09D2D9E50963070F461E070E0023009
:1004B000110511F060E070E0892F4A8399830E9452
:1004C000F80099814A814231D8F4ED2DE695E69500
:1004D000E6958D2D8770F0E0E159FD4F21E030E089
:1004E000082E01C0220F0A94EAF70115110521F424
:1004F0008081822B808304C02095808128232083E3
:10050000F501EE0FFF1FE95BFD4F118210820230F3
:10051000110599F044F40115110509F10130110597
:1005200009F08CC02CC00430110509F458C0BCF18E
:100530000630110509F082C077C0963008F095C0EA
:10054000423140F460E08D2D0E943A1060E08D2D24
:100550000E947210F501EE58FD4F82E06DC04231ED
:1005600008F083C060E08D2D0E943A1060E08D2D70
:100570000E947210F501EE58FD4F108276C0423194
:1005800008F073C060E08D2D0E94721061E08D2D27
:100590000E943A10F501EE58FD4F81E04DC093E006
:1005A000D91679F0E5E0DE1661F0F6E0DF1649F0E5
:1005B00089E0D81631F09AE0D91619F0EBE0DE1296
:1005C00054C061E08D2D0E943A1060E070E08D2DE6
:1005D0000E94AF0FF501EE58FD4F83E02DC04C3067
:1005E00008F043C0F501EE58FD4F84E08083C5015B
:1005F00002978C01000F111F080F191F00521E4F88
:10060000C8010E940C09811130C0B501C8010F90CA
:100610000F90DF91CF911F910F91FF90EF90DF909E
:10062000BF90AF900C9467088D2D82518230E8F412
:10063000F501EE58FD4F86E0808317C069E571E053
:1006400084E793E00F900F90DF91CF911F910F916E
:10065000FF90EF90DF90BF90AF900C94F40DC70126
:100660004A830E946D084A811CCF0F900F90DF9142
:10067000CF911F910F91FF90EF90DF90BF90AF90BF
:100680000895CF93C0E08C2F8251823028F466E029
:1006900070E08C2F0E941802CF5FC431A1F781E077
:1006A0008093060284EB92E0CF910C94B709BF923D
:1006B000CF92DF92EF92FF920F931F93CF93DF932E
:1006C000162FEA018F3609F463C150F48B3609F412
:1006D00084C18D3609F409C2893609F078C25AC23C
:1006E000863761F020F4803709F071C2F9C088378D
:1006F00009F4D9C08A3709F06AC231C18981982FBB
:10070000987185FF03C06AE671E05FC08881983008
:1007100099F118F4992341F05AC2903109F44FC06D
:10072000983109F054C27BC0682F84EB92E00E949C
:10073000D10902E00EC0FE01E00FF11D8181608150
:1007400020E8829F6019112484EB92E00E947709CF
:100750000E5F011780F384EB92E00E94EE0986E4BD
:1007600090E0DF91CF911F910F91FF90EF90DF907C
:10077000CF90BF900C948F12663071F49D814C81A4
:1007800030E8939F401911249B816A81E0E89E9F85
:100790006019112470E008C09B814A81F0E89F9F96
:1007A000401911246FEF7FEFDF91CF911F910F91CF
:1007B000FF90EF90DF90CF90BF900C945601209166
:1007C000000127307CF066E971E084E793E0DF9177
:1007D000CF911F910F91FF90EF90DF90CF90BF903E
:1007E0000C94F40D2F5F20930001332727FD3095E3
:1007F000F901EE0FFF1FE20FF31FE95DFD4F80834C
:100800009B818A8120E8929F8019112481839D8198
:100810008C8130E8939F801911248283D8C1709114
:100820000001171684F08FEF80930001D0C1F90109
:10083000EE0FFF1FE20FF31FE95DFD4F8083811173
:1008400029C06F5F05C060E0472F552747FD5095D1
:10085000262F30E04217530754F760E01BC0683082
:10086000C0F49C012F5F3F4FD901AA0FBB1FA20FFD
:10087000B31FA95DBD4F2C91FC01EE0FFF1FE80FC8
:10088000F91FE95DFD4F20838C91818312968C9135
:1008900082836F5F862F90E04817590704F77150E5
:1008A0007093000194C128818981E0E88E9FC00186
:1008B0001124820F911D009721F0909305028093DF
:1008C000040280910602811182C1DF91CF911F91B4
:1008D0000F91FF90EF90DF90CF90BF900C94410369
:1008E000653008F474C1F880E980DA80CB80BC8080
:1008F0008F2D82508C3008F06AC10F2D10E0B801A6
:1009000062507109EB01CC0FDD1FC60FD71FC0521B
:10091000DE4FCE010E940C09882319F0CE010E94FF
:100920006D08F0E8BF9E900111242C0D311D80E868
:10093000D89EA00111244E0D511DB801CE010E9478
:10094000E60764E070E08F2DDF91CF911F910F914A
:10095000FF90EF90DF90CF90BF900C941802623020
:1009600008F435C128818981E0E88E9FC0011124F7
:10097000820F911D90930201809301010A970CF060
:1009800026C18AE090E090930201809301011FC18B
:10099000623008F41CC1698170E0123091F08A81E4
:1009A000F0E88F9FC0011124682B792B133049F098
:1009B0002B81922F9295990F990F907C80E0682B54
:1009C000792B8881DF91CF911F910F91FF90EF904C
:1009D000DF90CF90BF900C94130160EF70E088EB34
:1009E00093E00E944F016CE670E088EB93E00E9478
:1009F0004F01C0E0DC2FD250D231B0F460E088EB80
:100A000093E00E94AE1361E070E088EB93E00E94F7
:100A10004F0161E088EB93E00E94AE1361E070E06B
:100A200088EB93E00E944F018C2F8E50863068F443
:100A300062E070E088EB93E00E944F016AE070E0B2
:100A400088EB93E00E944F0111C0C33069F463E06A
:100A500070E088EB93E00E944F0168E070E088EB63
:100A600093E00E944F010AC0C53089F3C63079F384
:100A7000C93069F3CA3059F3CB3049F3DC3060F444
:100A800064E070E088EB93E00E944F016EE070E05C
:100A900088EB93E00E944F018C2F8251823060F4EA
:100AA00066E070E088EB93E00E944F0161E070E047
:100AB00088EB93E00E944F016FE770E088EB93E0D2
:100AC0000E944F01CF5FC43109F094CF67EF70E00F
:100AD00088EB93E0DF91CF911F910F91FF90EF9002
:100AE000DF90CF90BF900C944F01662309F46FC044
:100AF000C88160EF70E088EB93E00E944F016EE6E2
:100B000070E088EB93E00E944F016C2F88EB93E03C
:100B10000E94AE13C431D0F6D0E0FE01EE58FD4F76
:100B2000608188EB93E00E94AE13CC0FDD1F8E0135
:100B3000095B1D4FF801608171816F77772788EB22
:100B400093E00E944F01F80160817181CB018078B0
:100B5000892B51F0660F672F661F770B6F7777270A
:100B600088EB93E00E944F01C95BDD4F688179817A
:100B7000CB018827907C892B09F4A8CF770F660BCF
:100B8000770F762F661F6F77772788EB93E00E94A9
:100B90004F019CCF60EF70E088EB93E00E944F0123
:100BA0006AE670E088EB93E00E944F01C2EFDFEF4E
:100BB000C63010F4BE0102C06FE770E088EB93E02E
:100BC0000E944F012196C630D10591F77FCFDF916A
:100BD000CF911F910F91FF90EF90DF90CF90BF903A
:100BE0000895CF938091060281110E941202109203
:100BF000890210926F021092860210928A0210925D
:100C000070021092870210928B0210927102109261
:100C10008802C0E08C2F8E50863018F462E070E0BD
:100C200002C061E070E08C2F0E941802CF5FC431D7
:100C300089F710928D0210928C02CF91089523E0D3
:100C400042E067EA71E084E793E00E94B40C43E17C
:100C500051E060EE84E793E00E94F80D42E950E035
:100C600060E984E793E00E94F80D48EF50E060EC03
:100C700084E793E00E94F80D4AE850E060ED84E7D5
:100C800093E00E94F80D48E152E064EF84E793E0BE
:100C90000E94F80D47E553E060EF84E793E00E947F
:100CA0001B0E41EF55E06FEF84E793E00E94150EB5
:100CB00040E051EE60E070E084E793E00E94500F66
:100CC0000C94F1058F929F92AF92BF92CF92DF92D8
:100CD000EF92FF920F931F93CF93DF930E94E20155
:100CE00004C084E793E00E94380E84E793E00E94FA
:100CF000090D892BB1F70E942D1260934302709366
:100D000044028093450290934602C0903F02D090E7
:100D10004002E0904102F090420240910101509166
:100D200002014A01AA2497FCA094BA2C8B019C01D1
:100D30000C191D092E093F0980169106A206B3065B
:100D400008F04EC0D501C4018C0D9D1DAE1DBF1D08
:100D500080933F0290934002A0934102B0934202DD
:100D6000C2E7D2E012EF1630C0F488818230A9F4D5
:100D700020918C0230918D02012E02C0359527956D
:100D80000A94E2F720FF09C0812F0E948E0FAC0168
:100D9000612F84E793E00E94630D1F5F2196163058
:100DA00011F78091000187FF10C01AC0FC01EE0FFF
:100DB000FF1FE80FF91FE95DFD4F6181428170E07F
:100DC00080810E945601CF5F01C0C0E08C2F90E06F
:100DD00020910001332727FD30952817390734F774
:100DE000DF91CF911F910F91FF90EF90DF90CF9007
:100DF000BF90AF909F908F900895CF93DF93C0EEF8
:100E0000D1E0CE010E94CA07239682E0C430D80701
:100E1000C1F7DF91CF9108951F920F920FB60F92F5
:100E200011242F933F934F935F936F937F938F93EF
:100E30009F93AF93BF93EF93FF9380918F0287FFB0
:100E400005C010928500109284001AC020918F0274
:100E5000332727FD309580918E0290E028173907BF
:100E60007CF480918F02992787FD9095FC01EE0F0D
:100E7000FF1FE80FF91FE057FD4F808186FD37C047
:100E800080918F028F5F80938F0220918F02332792
:100E900027FD309580918E0290E028173907CCF518
:100EA00080918F028C30F4F134C080918F029927A9
:100EB00087FD9095FC01EE0FFF1FE80FF91FE0572B
:100EC000FD4F808161E08F730E94721052C080E4F8
:100ED0009CE905C0809184009091850004969093D0
:100EE0008900809388008FEF80938F0242C08091A9
:100EF0008F02992787FD9095FC01EE0FFF1FE80FE9
:100F0000F91FE057FD4F808160E08F730E947210DF
:100F1000B7CF8091840090918500049680349C49DD
:100F2000B0F2D8CF809184009091850020918F02FB
:100F3000332727FD3095F901EE0FFF1FE20FF31F56
:100F4000E057FD4F21813281820F931F90938900DA
:100F50008093880080918F02992787FD9095FC01EE
:100F6000EE0FFF1FE80FF91FE057FD4F808186FD50
:100F70009CCFFF91EF91BF91AF919F918F917F9106
:100F80006F915F914F913F912F910F900FBE0F90F6
:100F90001F90189520918E022C30A0F4FC01208324
:100FA000822F8F5F80938E02822F90E0FC01EE0FE4
:100FB000FF1FE80FF91FE057FD4F88EB9BE092837E
:100FC000818308952FEFFC0120830895DF92EF9233
:100FD000FF920F931F93CF93DF93EC01D62E7A01EC
:100FE000890188818C3008F065C061E08D2D0E94F8
:100FF0003A108881A82FB0E0FD01EE0FFF1FEA0F25
:10100000FB1FE057FD4F2D2D2F739081907C922B6D
:10101000908360E272E06E197F0977FF02C06D5F16
:101020007F4F7595679575956795698340E659E09B
:10103000401B510B57FF02C04D5F5F4F55954795C1
:10104000559547954A836CE00E9451159CE0899F15
:10105000B001112420E030E0A901460F571FFA012A
:10106000EE0FFF1FE40FF51FE057FD4F908196FD37
:1010700015C02F5F3F4F2C30310571F71DC0109206
:10108000800082E08093810010928500109284009D
:10109000B19A80916F00826080936F00888190E0A8
:1010A000FC01EE0FFF1FE80FF91FE057FD4F808195
:1010B00080648083888103C0882309F3EFCFDF91A8
:1010C000CF911F910F91FF90EF90DF90089520E650
:1010D00039E040E252E00C94E607FC01808190E0A8
:1010E000FC01EE0FFF1FE80FF91FE057FD4F808155
:1010F0008F7B80830895FC0180818C3070F5918115
:1011000028E830E0291B310997FD3395220F331F62
:10111000220F331F621773077CF0928128E532E0BB
:10112000291B310997FD3395220F331F220F331FDF
:10113000621773070CF49B014FB7F89490E0FC0121
:10114000EE0FFF1FE80FF91FE057FD4F2250310946
:10115000220F331F328321834FBF0895AF92BF9276
:10116000CF92DF92EF92FF920F931F93CF93DF9373
:10117000EC01603282E078070CF041C077FD04C0DA
:10118000653B710524F405C060E070E002C064EBCB
:1011900070E0298188E890E0821B910927FD9395F2
:1011A000880F991F880F991F5C01CC24B7FCC0944D
:1011B000DC2C882777FD8095982F2A8148E552E01E
:1011C000421B510927FD5395440F551F440F551FCE
:1011D0008A01222717FD2095322F3F932F931F93CB
:1011E0000F9314EBE12EF12C00E010E020E030E052
:1011F000A9010E94D4120F900F900F900F90CE0172
:10120000DF91CF911F910F91FF90EF90DF90CF90E2
:10121000BF90AF900C947B08FC01808190E0FC01B2
:10122000EE0FFF1FE80FF91FE057FD4F808186FB8F
:10123000882780F908952091E40230E08091E5024A
:10124000281B3109C90108958091E5029091E402BB
:10125000891750F4E82FF0E0EA51FD4F208130E08B
:101260008F5F8093E50202C02FEF3FEFC901089521
:10127000E091E5028091E402E81730F4F0E0EA51F1
:10128000FD4F208130E002C02FEF3FEFC9010895EC
:101290000895CF92DF92EF92FF920F931F93CF9317
:1012A000DF937C01CB018A012091C002222391F0BF
:1012B000EB016B01C40ED51E09C06991D701ED91F8
:1012C000FC910190F081E02DC7010995CC15DD0559
:1012D000A1F703C0642F0E94AB0AC801DF91CF9130
:1012E0001F910F91FF90EF90DF90CF900895CF93D3
:1012F000DF931F92CDB7DEB769832091C00222230E
:10130000D1F02091C102203240F021E030E0FC0118
:101310003383228320E030E015C08091C202E82FA1
:10132000F0E0ED53FD4F998190838F5F8093C2026F
:101330008093C10205C061E0CE0101960E94AB0A14
:1013400021E030E0C9010F90DF91CF910895FC01B9
:101350001382128248EE53E060E070E044835583CC
:10136000668377838FEB91E0918380830895109259
:10137000E5021092E4021092C2021092C1020C9493
:10138000F509862F413208F040E266EE72E00E94D5
:10139000130A1092E5028093E402089521E00C9470
:1013A000C10981E08093C0026093E3021092C202FF
:1013B0001092C10208950F93062F21E04091C102BF
:1013C00063EC72E08091E3020E94580A1092C2021C
:1013D0001092C1021092C0020F91089561E00C9426
:1013E000DB0984EB92E00C94A70910920F0381E0D3
:1013F00080930D0310920C0361E082E10E94721051
:1014000061E083E10E947210E9EBF0E080818E7F61
:10141000808380818D7F808388E48093B80085E419
:101420008093BC000895413208F03FC090910F03B3
:101430009111FCCF91E090930F0320930D032FEFB8
:101440002093060310920B03242F215020930A03AC
:1014500090930E0390910E03880F892B80930E03B7
:1014600080910C03813041F410920C0380910E03A3
:101470008093BB0085EC01C085EE8093BC00809119
:101480000F038130E1F380910B03841710F4409136
:101490000B0320E133E0FB01D90102C08D91819360
:1014A0008A2F821B8417D0F301C040E0842F089557
:1014B0000F93413208F046C090910F039111FCCF79
:1014C00092E090930F0300930D039FEF9093060318
:1014D00010920B0340930A03FB0160E173E0DB0110
:1014E00002C091919D939A2F961B9417D0F310925E
:1014F0000E0390910E03880F892B80930E03809129
:101500000C03813041F410920C0380910E03809300
:10151000BB0085EC01C085EE8093BC00222321F046
:1015200080910F038230E1F3809106038F3F61F0D9
:1015300080910603803251F080910603803341F49C
:1015400083E007C081E005C080E003C082E001C005
:1015500084E00F910895613298F420910F032430B4
:1015600089F460930803FC0180E393E0DC0102C08E
:1015700021912D932A2F281B2617D0F380E0089560
:1015800081E0089582E0089585ED8093BC0080910C
:10159000BC0084FDFCCF10920F03089585EC80936E
:1015A000BC0010920F0308951F920F920FB60F9276
:1015B00011242F933F934F935F936F937F938F9358
:1015C0009F93AF93BF93EF93FF938091B900887F70
:1015D000803609F49FC058F5883209F45BC090F456
:1015E000803109F452C038F4882309F4F8C08830F7
:1015F00009F0F9C04AC0883109F44CC0803209F0C2
:10160000F2C05CC0803409F46BC038F4803309F454
:1016100055C0883309F0E7C054C0803509F454C080
:10162000883509F462C0883409F0DDC0DAC0883931
:1016300009F4CBC0A8F4883709F46CC038F48836B4
:1016400009F468C0803709F0CEC064C0883809F456
:10165000BCC0803909F464C0803809F0C4C060C0DF
:10166000803B09F48AC038F4803A09F46BC0883AA8
:1016700009F0B9C082C0803C09F4ABC0883C09F4D1
:10168000A8C0883B09F0AFC08DC080910E03809345
:10169000BB0012C090910B0380910A03981788F544
:1016A00080910B03E82FF0E0E05FFC4F9081909376
:1016B000BB008F5F80930B0385EC88C0809306038B
:1016C00090C08093060356C080910B039091BB009D
:1016D000E82FF0E0E05FFC4F90838F5F80930B0377
:1016E00090910B0380910A036DC080910B03909140
:1016F000BB00E82FF0E0E05FFC4F90838F5F8093AA
:101700000B0380910D0381116CC081E080930C0369
:1017100084EA60C083E080930F0310920703CCCF6C
:1017200080910703803208F050C0809107039091A8
:10173000BB00E82FF0E0EC5AFC4F90838F5F809362
:101740000703BACF80910703803230F4E09107039A
:10175000F0E0EC5AFC4F10820E94C40A609107032B
:10176000E0915003F091510370E084E593E0099516
:10177000109207030E94CE0A36C084E080930F03C4
:101780001092090310920803E0915203F091530361
:10179000099580910803811105C081E080930803B9
:1017A0001092300380910903E82FF0E0E05DFC4FD8
:1017B00090819093BB008F5F809309039091090300
:1017C00080910803981708F477CF85E88093BC00D0
:1017D0000AC085EC8093BC0010920F0304C01092E5
:1017E00006030E94C40AFF91EF91BF91AF919F91B0
:1017F0008F917F916F915F914F913F912F910F90BA
:101800000FBE0F901F9018950F931F93CF93DF93E8
:10181000EC018B01A881B981ED91FC9111976F7753
:1018200077270190F081E02DCD010995A881B9813C
:10183000ED91FC911197B801660F672F661F770B2A
:101840006F7777270190F081E02DCD01DF91CF9167
:101850001F910F910994FC01A081B181ED91FC9140
:1018600011970190F081E02D60EFCD010994FC010A
:10187000A081B181ED91FC9111970190F081E02D53
:1018800067EFCD010994CF93DF93EC01A881B98173
:10189000ED91FC9111970190F081E02D69EFCD0160
:1018A0000995A881B981ED91FC9111970190F08182
:1018B000E02D62E0CD010995A881B981ED91FC91FF
:1018C00011970190F081E02D63E0CD01DF91CF9180
:1018D00009941F93CF93DF93EC018A81882309F445
:1018E0003FC0CE010E942B0CA881B981ED91FC91E3
:1018F00011970190F081E02D69E7CD010995A8814C
:10190000B981ED91FC9111978B819C81208131816E
:10191000FC016081CD01F9010995A881B981ED91A2
:10192000FC9111978B819C8120813181FC01618127
:10193000CD01F901099512E00AC0EB81FC81E10FAC
:10194000F11D608170E0CE010E94040C1F5F8A814E
:10195000181798F3CE01DF91CF911F910C94370C9B
:10196000DF91CF911F910895AF92BF92CF92DF92F6
:10197000EF92FF920F931F93CF93DF93EC015B01E4
:10198000C42ED22E6BEC71E0C5010E94D2157C01F1
:101990006FE270E0C5010E94C7158C010F5F1F4FF9
:1019A000E114F10449F00115110531F0E01AF10AD2
:1019B000E394E394EA8208C0D5010D900020E9F792
:1019C000AA19AF5FAA838501EA80F12CC7010E94A2
:1019D000A9109C838B83FC01EE0DFF1D1082EB810F
:1019E000FC81C082EB81FC81D1824A8150E042506F
:1019F00051098B819C81B8010296DF91CF911F9193
:101A00000F91FF90EF90DF90CF90BF90AF900C942C
:101A1000B815DC018D919C91DC01ED91FC91048065
:101A2000F581E02D09941F93CF93DF93EC01888516
:101A3000813741F08937B1F5CE01DF91CF911F9108
:101A40000C94690C8FA998AD892BC9F129A53AA5E9
:101A5000C901019797FDC90195958795182F992779
:101A60000E94A910FC0121E013C0DE01A20FB11DEC
:101A700018963C913083422F4F5FDE01A40FB11DB9
:101A800018964C9150E8459F3019112431932E5FE0
:101A90003E2F381B311748F3EFA9F8ADDF91CF91F6
:101AA0001F910994E9ADFAAD309749F0AE01475F57
:101AB0005F4F69A56150DF91CF911F910994DF912C
:101AC000CF911F9108950F931F93CF93DF93EC0154
:101AD0008A01A881B981ED91FC9111976F70606EB8
:101AE0000190F081E02DCD010995B801CE01DF9183
:101AF000CF911F910F910C94040C0F931F93CF93D0
:101B0000DF93EC018A01A881B981ED91FC911197D5
:101B10006F7060690190F081E02DCD010995A88179
:101B2000B981ED91FC911197B8016F7777270190FA
:101B3000F081E02DCD010995A881B981ED91FC914D
:101B40001197B801660F672F661F770B0190F08120
:101B5000E02DCD01DF91CF911F910F910994CF928C
:101B6000DF92EF92FF920F931F93CF93DF9300D0FA
:101B7000CDB7DEB78C01E42EF22E3A8369830E9442
:101B80002B0CF801A081B181ED91FC91119740815E
:101B900051816981CD01FA010995CF2C3A81D32E6B
:101BA00007C0F60161916F0170E0C8010E94040C4A
:101BB0008C2D8F198E15A8F3C8010F900F90DF910F
:101BC000CF911F910F91FF90EF90DF90CF900C94E9
:101BD000370C9A01FA0101900020E9F73197E41BD4
:101BE000F50B4E2F0C94AF0DAB0161E70C94E90D92
:101BF000FC01603DA1F028F4603959F0603CA1F48B
:101C00000BC0603E19F0643F79F40CC054A743A7A1
:101C1000089556A745A7089550AB47A7089552AB1E
:101C200041AB089554AB43AB08956F3F19F4FC01E9
:101C300056AB45AB0895FC0152AF41AF0895FC018E
:101C400015821682178280E090E0DF01A80FB91F8D
:101C500018961C92019680329105B9F710A612A62B
:101C600011A605A8F6A9E02D309709F0099408956A
:101C7000CF93DF93EC0188819981DC01ED91FC9198
:101C80000680F781E02D099528A52223A1F0873F42
:101C9000910531F418A6CE01DF91CF910C94130D6C
:101CA00029A53AA5FE01E20FF31F80872F5F3F4F62
:101CB0003AA729A78DC02D81222309F44DC0803871
:101CC00091050CF049C0922F91509D83FE01E90FC0
:101CD000F11D808791117CC08E81882309F478C022
:101CE000803D81F128F48039A9F0803C99F527C026
:101CF000803E19F0843F71F51AC0EBA5FCA5309722
:101D000049F18885698570E0B0E88B9F600D711D91
:101D100011241EC0EDA5FEA53097E1F088856985E8
:101D200070E090E8899F600D711D112411C0EBA92E
:101D3000FCA9309779F0688570E089850AC0EFA525
:101D4000F8A902C0E9A9FAA9309721F0688570E0E6
:101D50008F8109951E823CC09C01803F91052CF427
:101D6000207F33278F7099278F83203E3105D1F054
:101D700054F4203C3105C1F0203D3105A9F0203953
:101D8000310531F50FC0243F310561F024F4203FC7
:101D90003105F1F40DC0293F3105A1F02F3F310588
:101DA000B9F40BC082E001C081E08D832E8310C0A6
:101DB00081E088A71AA619A60BC0CE01DF91CF91AA
:101DC0000C941F0E84E793E0DF91CF910C94430CA9
:101DD000DF91CF9108958F929F92AF92BF92CF9251
:101DE000DF92EF92FF921F93CF93DF93EB016A0193
:101DF000490161E08DE00E943A1010E0AA2497FCAE
:101E0000A094BA2CEE24D7FCE094FE2C11C0C5019E
:101E1000B4010E94691261E08DE00E947210C70156
:101E2000B6010E94691260E08DE00E9472101F5F8F
:101E3000812F90E08C179D0754F3DF91CF911F9174
:101E4000FF90EF90DF90CF90BF90AF909F908F90DA
:101E50000895CF93DF93EC0161E08DE00E943A108A
:101E600022ED30E048E250E062E070E0CE010E94F6
:101E7000EB0E6AEF70E080E090E00E94691222EDC4
:101E800030E048E250E063E070E0CE010E94EB0EEB
:101E90006DE770E080E090E0DF91CF910C946912E3
:101EA000CF93DF93EC0188EB93E00E946A14E88102
:101EB000F9818091BA039091BB03938382838091CF
:101EC000BC039091BD03A091BE03B091BF03848376
:101ED0009583A683B7834091C0035091C10360915D
:101EE000C2037091C3034087518762877387CE0115
:101EF0000E94290FCE010E94430CCE01DF91CF91A9
:101F00000C94690C88EB93E09093750380937403B1
:101F10001092760384E793E00C941F0E8E3008F045
:101F20008E5087702091030140E4249F900111247A
:101F3000822B80937C0080917A00806480937A0069
:101F400080917A0086FDFCCF209178003091790055
:101F5000932F80E0AC01422B9A01C90108951F9391
:101F6000CF93DF93182FEB0161E00E943A10209786
:101F700011F460E004C0CF3FD10539F461E0812F56
:101F8000DF91CF911F910C947210E12FF0E0E8598E
:101F9000FF4FE491E330B9F028F4E13051F0E23042
:101FA000B1F50CC0E63019F1E73049F1E43079F5CC
:101FB00014C084B5806884BDC7BD2EC084B580625E
:101FC00084BDC8BD29C08091800080688093800056
:101FD000D0938900C09388001FC0809180008062E8
:101FE00080938000D0938B00C0938A0015C08091AD
:101FF000B00080688093B000C093B3000DC08091A2
:10200000B00080628093B000C093B40005C0C038B7
:10201000D1050CF0B3CFADCFDF91CF911F910895D3
:10202000833069F028F48130A1F0823011F514C0BA
:102030008630B1F08730C1F08430D9F404C080918B
:1020400080008F7703C0809180008F7D8093800017
:10205000089584B58F7702C084B58F7D84BD0895BF
:102060008091B0008F7703C08091B0008F7D809306
:10207000B0000895CF93DF9390E0FC01E458FF4F48
:102080004491FC01E057FF4F8491882341F190E097
:10209000880F991FFC01E255FF4F25913491D9011A
:1020A0008C559F4FFC0185919491C82FD92F9FB7D4
:1020B000F8948C91611106C0409584238C9388819B
:1020C000842308C0623041F4242F209582238C930E
:1020D0008881842B888302C0842B8C939FBFDF91DF
:1020E000CF9108950F931F93CF93DF931F92CDB796
:1020F000DEB7282F30E0F901E859FF4F8491F9014C
:10210000E458FF4F1491F901E057FF4F0491002369
:10211000D1F0882321F069830E9410106981E02F9B
:10212000F0E0EE0FFF1FEC55FF4F85919491DC011D
:102130009FB7F8948C91611103C01095812301C061
:10214000812B8C939FBF0F90DF91CF911F910F91A7
:1021500008950F931F93CF93DF938230910510F46E
:1021600082E090E0E0916404F091650420E030E0CA
:10217000C0E0D0E023C04081518148175907A8F042
:102180004817590761F482819381209719F09B8346
:102190008A832EC0909365048093640429C021151E
:1021A000310529F04217530710F0A90102C0BE0102
:1021B000DF0102811381EF019A01F8013097D9F60E
:1021C0002115310509F1281B390B2430310590F414
:1021D00012968D919C9113976115710521F0FB0169
:1021E0009383828304C09093650480936404FD010B
:1021F000329644C0FD01E20FF31F81939193225068
:1022000031092D933C933AC02091620430916304CC
:10221000232B41F420910601309107013093630490
:1022200020936204209104013091050121153105AC
:1022300041F42DB73EB74091080150910901241B8C
:10224000350BE0916204F0916304E217F307A0F408
:102250002E1B3F0B2817390778F0AC014E5F5F4FFC
:102260002417350748F04E0F5F1F509363044093C7
:1022700062048193919302C0E0E0F0E0CF01DF912E
:10228000CF911F910F910895EF92FF920F931F939B
:10229000CF93DF93009709F48FC0DC011297139658
:1022A0001C921E921297E0906404F0906504E11471
:1022B000F10489F42D913C911197280F391F8091D9
:1022C0006204909163048217930789F5B0936304C5
:1022D000A093620471C0E70120E030E001C0EA0190
:1022E000CA17DB0738F44A815B819E01411551050D
:1022F000B1F722C0BC0162507109FB01D383C283D4
:1023000000811181AC01400F511F4C175D0761F432
:1023100048815981400F511F4E5F5F4F5183408369
:102320004A815B81538342832115310529F4B0939F
:102330006504A093640440C0F901B383A283E9015A
:1023400069917991C60FD71FAC17BD0779F4DC01ED
:102350005E914E91460F571F4E5F5F4F51834083F2
:1023600012968D919C91139793838283A0E0B0E0A5
:1023700002C0D7017C01F701828193810097C9F7E0
:10238000C701029620813181820F931F2091620440
:10239000309163042817390779F4109729F41092C3
:1023A00065041092640404C013961C921E92129746
:1023B000F0926304E0926204DF91CF911F910F913C
:1023C000FF90EF9008951F920F920FB60F92112475
:1023D0002F933F938F939F93AF93BF938091AF03BE
:1023E0009091B003A091B103B091B2033091B703C3
:1023F000232F2D5F2D3720F40196A11DB11D05C09F
:10240000232F2A570296A11DB11D2093B703809355
:10241000AF039093B003A093B103B093B203809144
:10242000B3039091B403A091B503B091B6030196A4
:10243000A11DB11D8093B3039093B403A093B50382
:10244000B093B603BF91AF919F918F913F912F9120
:102450000F900FBE0F901F9018950F931F938FB77B
:10246000F8940091AF031091B0032091B103309123
:10247000B2038FBFB801C9011F910F9108950F9347
:102480001F939FB7F8940091B3031091B403209168
:10249000B5033091B60386B5A89B06C08F3F21F0E7
:1024A0000F5F1F4F2F4F3F4F9FBF322F212F102FF6
:1024B0000027080F111D211D311D42E0000F111FC3
:1024C000221F331F4A95D1F7B801C9011F910F91FF
:1024D0000895CF92DF92EF92FF92CF93DF936B013B
:1024E0007C010E943F12EB010EC00E943F126C1B48
:1024F0007D0B683E734038F081E0C81AD108E108CE
:10250000F108C851DC4FC114D104E104F10469F7AA
:10251000DF91CF91FF90EF90DF90CF9008950197DA
:1025200039F0880F991F880F991F02970197F1F7CB
:102530000895789484B5826084BD84B5816084BD3B
:1025400085B5826085BD85B5816085BDEEE6F0E02C
:10255000808181608083E1E8F0E010828081826088
:102560008083808181608083E0E8F0E08081816009
:102570008083E1EBF0E0808184608083E0EBF0E039
:10258000808181608083EAE7F0E0808184608083DD
:102590008081826080838081816080838081806887
:1025A00080831092C10008954F925F926F927F9244
:1025B000AF92BF92CF92DF92EF92FF920F931F9351
:1025C000CF93DF93CDB7DEB729013A01621B730BBE
:1025D000840B950B29893A894B895C892A193B0917
:1025E0004C095D09298B3A8B4B8B5C8B9B01AC01B1
:1025F00069897A898B899C890E944115E418F508BC
:1026000006091709A80197010E947F152A0D3B1D95
:102610004C1D5D1DB901CA01DF91CF911F910F9132
:10262000FF90EF90DF90CF90BF90AF907F906F9032
:102630005F904F9008950E9499120E941F06C6E273
:10264000D4E10E9462062097E1F30E942614F9CF9C
:10265000CF92DF92EF92FF920F931F93CF93DF936E
:102660006C01EB017A01E60EF71E00E010E00BC0F2
:102670006991D601ED91FC910190F081E02DC601A8
:102680000995080F191FCE15DF0591F7C801DF91D5
:10269000CF911F910F91FF90EF90DF90CF90089511
:1026A000FC0184859585FC01E05CFF4F2081318130
:1026B000FC01EE5BFF4F80819181281B390B2F734A
:1026C0003327C9010895FC0184859585FC01E05CF0
:1026D000FF4F40815181FC01EE5BFF4F2081318132
:1026E0004217530741F00190F081E02DE80FF91FE8
:1026F000208130E002C02FEF3FEFC9010895FC01B7
:1027000084859585FC01E05CFF4F40815181FC018F
:10271000EE5BFF4F208131814217530781F0A0818A
:10272000B181A80FB91F8C91208131812F5F3F4F5C
:102730002F73332731832083282F30E002C02FEFFF
:102740003FEFC9010895FC0181A1882329F0A489E4
:10275000B5898C9186FFFBCF11A20895CF93DF93AB
:10276000FC0126853785D901A05CBF4F8D919C91D6
:10277000119701968F739927E901CE5BDF4F48814E
:10278000598184179507D9F30D90BC91A02DA20F04
:10279000B31F6C93A685B785A05CBF4F11969C9321
:1027A0008E93A689B7892C9181E090E0078C02C0B6
:1027B000880F991F0A94E2F7282B2C9381E081A3BC
:1027C0000488F589E02D80818064808381E090E039
:1027D000DF91CF91089508951F920F920FB60F9237
:1027E00011242F933F934F938F939F93EF93FF93D6
:1027F0008091C00082FD1CC04091C60080915E04A3
:1028000090915F0401968F73992720916004309115
:1028100061048217930771F0E0915E04F0915F0408
:10282000E25EFB4F408390935F0480935E0402C09E
:102830008091C600FF91EF919F918F914F913F91B1
:102840002F910F900FBE0F901F90189588EB93E07B
:102850000E945013892B11F00C94EB1308951F92D2
:102860000F920FB60F9211242F933F938F939F9344
:10287000EF93FF9320911A0430911B0480911C0464
:1028800090911D042817390731F48091C1008F7D84
:102890008093C10014C0E0911C04F0911D04E65225
:1028A000FC4F208180911C0490911D0401968F7330
:1028B000992790931D0480931C042093C600FF91D8
:1028C000EF919F918F913F912F910F900FBE0F909D
:1028D0001F901895CF92DF92EF92FF92CF93DF93E4
:1028E000EC016A017B01411581EE58076105710514
:1028F000F9F0EC89FD8981E090E008A002C0880F22
:10290000991F0A94E2F7808360E079E08DE390E01C
:10291000A70196010E945D15215031094109510915
:102920005695479537952795211580E1380798F0FA
:10293000EC89FD89108260E874E88EE190E0A701DF
:1029400096010E945D1521503109410951095695A2
:10295000479537952795E889F9893083EA89FB8976
:10296000208319A2EE89FF89408181E090E09C01DB
:102970000C8C02C0220F331F0A94E2F7422B4083D3
:10298000EE89FF8940819C010D8C02C0220F331F0C
:102990000A94E2F7422B4083EE89FF8940819C0133
:1029A0000E8C02C0220F331F0A94E2F7422B4083A1
:1029B000EE89FF8920810F8C02C0880F991F0A942D
:1029C000E2F7809582238083DF91CF91FF90EF9093
:1029D000DF90CF9008951092BB031092BA0388EE57
:1029E00093E0A0E0B0E08093BC039093BD03A0937C
:1029F000BE03B093BF0384ED91E09093B90380933D
:102A0000B8038EE194E09093C5038093C4038AEDEC
:102A100093E09093C7038093C60385EC90E0909376
:102A2000C9038093C80384EC90E09093CB03809318
:102A3000CA0380EC90E09093CD038093CC0381ECAB
:102A400090E09093CF038093CE0382EC90E090933C
:102A5000D1038093D00386EC90E09093D3038093CE
:102A6000D20384E08093D40383E08093D50387E08E
:102A70008093D60385E08093D70381E08093D803C9
:102A80000895DB018F939F930E949B15BF91AF9197
:102A9000A29F800D911DA39F900DB29F900D1124B8
:102AA0000895991B79E004C0991F961708F0961BAA
:102AB000881F7A95C9F780950895A1E21A2EAA1B5E
:102AC000BB1BFD010DC0AA1FBB1FEE1FFF1FA217DE
:102AD000B307E407F50720F0A21BB30BE40BF50BDB
:102AE000661F771F881F991F1A9469F76095709564
:102AF000809590959B01AC01BD01CF010895052EF5
:102B000097FB16F4009407D057FD0DD00E945D1579
:102B100007FC09D07EF490958095709561957F4F64
:102B20008F4F9F4F089550954095309521953F4F79
:102B30004F4F5F4F08950E94AC15A59F900DB49F15
:102B4000900DA49F800D911D11240895EE0FFF1F7D
:102B50000590F491E02D0994A29FB001B39FC001AC
:102B6000A39F01D0B29F700D811D1124911D089566
:102B7000FB01DC014150504048F001900D920020D3
:102B8000C9F701C01D9241505040E0F70895FC0183
:102B900081E090E00190061609F4CF010020D1F702
:102BA00001970895FB0151915523A9F0BF01DC0164
:102BB0004D9145174111E1F759F4CD0101900020E5
:102BC00049F04D9140154111C9F3FB014111EFCF7F
:0C2BD00081E090E001970895F894FFCF99
:102BDC00FF13000100006604800049324320526557
:102BEC006164204572726F723A20546F6F206D6170
:102BFC006E79206279746573207265636569766598
:102C0C0064004932432052656164204572726F72D0
:102C1C003A20546F6F206665772062797465732053
:102C2C00726563656976656400556E6B6E6F776E61
:102C3C002070696E206D6F64650031302D6269748F
:102C4C002061646472657373696E67206D6F64656F
:102C5C00206973206E6F74207965742073757070A1
:102C6C006F7274656400746F6F206D616E79207182
:102C7C00756572696573005374616E646172644644
:102C8C0069726D6174612E696E6F000000000077CF
:102C9C000949091B092409380948092E6370700079
:102CAC0000000000AE13281350137F136313A313FB
:00000001FF
